:020000040800F2
:100000006806002089010008C70300089302000861
:10001000C50300088F0200087B04000800000000F0
:10002000000000000000000000000000CB030008FA
:100030009102000800000000C9030008CD03000879
:10004000A3010008A3010008A3010008A301000800
:10005000A3010008A3010008A3010008A3010008F0
:10006000A3010008A3010008A3010008A3010008E0
:10007000A3010008A3010008A3010008A3010008D0
:10008000A3010008A3010008A3010008A3010008C0
:10009000A3010008A3010008A3010008A3010008B0
:1000A000A3010008A3010008A3010008A3010008A0
:1000B000A3010008A3010008A3010008A301000890
:1000C000A3010008A3010008A3010008A301000880
:1000D000A3010008A3010008A3010008A301000870
:1000E000A3010008A3010008A301000800F002F822
:1000F00000F03AF80AA090E8000C82448344AAF188
:100100000107DA4501D100F02FF8AFF2090EBAE885
:100110000F0013F0010F18BFFB1A43F0010318473B
:100120002404000044040000103A24BF78C878C1B9
:10013000FAD8520724BF30C830C144BF04680C60ED
:10014000704700000023002400250026103A28BF35
:1001500078C1FBD8520728BF30C148BF0B60704739
:100160001FB51FBD10B510BD00F058F81146FFF7C0
:10017000F7FF00F083F900F076F803B4FFF7F2FF21
:1001800003BC00F07DF8000009488047094800479B
:10019000FEE7FEE7FEE7FEE7FEE7FEE7FEE7FEE737
:1001A000FEE7FEE704480549054A064B7047000094
:1001B00079040008ED0000086800002068060020AF
:1001C00068020020680200204FF0000200B51346CC
:1001D00094469646203922BFA0E80C50A0E80C5067
:1001E000B1F12001BFF4F7AF090728BFA0E80C5018
:1001F00048BF0CC05DF804EB890028BF40F8042B11
:1002000008BF704748BF20F8022B11F0804F18BF7D
:1002100000F8012B7047704770477047754600F033
:100220002BF8AE4605006946534620F00700854688
:1002300018B020B5FFF7B6FFBDE820404FF000062C
:100240004FF000074FF000084FF0000B21F00701BE
:10025000AC46ACE8C009ACE8C009ACE8C009ACE801
:10026000C0098D46704710B50446AFF300802046A4
:10027000BDE81040FFF781BF00487047080000202C
:1002800001491820ABBEFEE7260002007047FEE7DA
:100290007047FEE7044908B58A6902438A618969A3
:1002A0000140009108BD000000100240F0B50A684E
:1002B000C2F30F2595FAA5F2B2FA82F369E00122A2
:1002C0009A402A4264D0082B03D240F201129A408D
:1002D00006E0A3F108024FF00114944044F080625C
:1002E0004C68082C0BD10C69C668170A97FAA7F757
:1002F000B7FA87F726EA1226BC402643C66092FA70
:10030000A2F700EB1264B7FA87F74FEA870C0F27C2
:10031000266807FA0CF7BE4392FAA2F7D1F804E078
:10032000B7FA87F7BF000EFA07FE46EA0E06266008
:100330004F68012F01D0092F2AD192FAA2F7B7FAFC
:1003400087F74FEA870C032707FA0CF7BE4392FAA8
:10035000A2F7B7FA87F7D1F808E0BF000EFA07FE58
:1003600092FAA2FC46EA0E06BCFA8CFC4FEA8C0E0E
:100370004FF0040C26600CFA0EFC92FAA2F2B2FACC
:1003800082F2CF68920026EA0C0697403E43266030
:100390005B1C35FA03F292D10020F0BD4FF47A7164
:1003A000B0FBF1F14FF0E020491E41610021816175
:1003B0000521016170470000014908607047000095
:1003C00004000020FEE7FEE770477047094908680F
:1003D000401C0860B0F5FA7F0AD1074AD068531470
:1003E000834300F4005043EA00401061002008609D
:1003F0007047000000000020001001401B4810B5AD
:10040000016821F007010160016811F0070FFBD1BD
:100410001748016821F0F80141F08001016001688E
:1004200041F0010101600168C1F340010029FAD0E7
:10043000416821F0F0014160416821F4E0614160D0
:10044000416821F460514160416821F0030141603D
:10045000416811F00C0FFBD1064C2046FFF79EFFC0
:100460002046BDE81040FFF7A7BF00000020024073
:100470000010024000127A007047FEE786B00120AB
:10048000FFF708FF2848C16941F08051C161C06988
:1004900000F080500090254801684FF6FF0211409F
:1004A000234A41F44071114301600068C0F3022007
:1004B000C0F10701042900D90421021D072A01D235
:1004C000002000E0C01E012505FA01F4641E194950
:1004D00084400026200181F8140D1748416821F05E
:1004E000E06141F000714160FFF788FF1421684628
:1004F000FFF76AFE1020FFF7CDFE0420FFF7CAFECB
:100500000F480E496A034261CDE900150221CDE989
:1005100002166946FFF7CAFE4FF0E020016941F07C
:1005200002010161FEE70000001002400CED00E056
:100530000000FA050FE000E0000001402000200468
:1005400000100140640500080000002008000000C1
:10055000280100086C050008080000206006000063
:0C05600044010008000000000024F4002A
:04000005080000ED02
:00000001FF
